:020000040800F2
:10000000A00700208901000827190008B114000882
:1000100025190008CF020008111E0008000000008A
:100020000000000000000000000000001B1B000892
:10003000D102000800000000191B00081D1B000869
:10004000A3010008A3010008A3010008A301000800
:10005000A3010008A3010008A3010008A3010008F0
:10006000A3010008A3010008A3010008A3010008E0
:10007000A3010008A3010008A3010008A3010008D0
:10008000A3010008A3010008A3010008A3010008C0
:10009000A3010008A3010008A3010008A3010008B0
:1000A000A3010008A3010008A3010008A3010008A0
:1000B000A3010008A3010008A3010008A301000890
:1000C000A3010008A3010008A3010008A301000880
:1000D000A3010008051E0008A3010008A3010008F1
:1000E000D3020008A3010008A301000800F002F8F1
:1000F00000F03AF80AA090E8000C82448344AAF188
:100100000107DA4501D100F02FF8AFF2090EBAE885
:100110000F0013F0010F18BFFB1A43F0010318473B
:10012000EC2600000C270000103A24BF78C878C1E4
:10013000FAD8520724BF30C830C144BF04680C60ED
:10014000704700000023002400250026103A28BF35
:1001500078C1FBD8520728BF30C148BF0B60704739
:100160001FB51FBD10B510BD00F077F81146FFF7A1
:10017000F7FF01F0BBFE00F095F803B4FFF7F2FFC4
:1001800003BC00F09DF8000009488047094800477B
:10019000FEE7FEE7FEE7FEE7FEE7FEE7FEE7FEE737
:1001A000FEE7FEE704480549054A064B7047000094
:1001B0007B1B0008ED000008A0010020A007002024
:1001C000A0030020A003002010B5431C02E010F89B
:1001D000011B71B18107FAD14FF0013202C88C1AAC
:1001E0008C4314EAC211F9D0C01A0A0603D0C01E0B
:1001F00010BDC01A10BD0A0401D0801E10BD090236
:10020000FCD0401E10BD4FF0000200B513469446CE
:100210009646203922BFA0E80C50A0E80C50B1F15E
:100220002001BFF4F7AF090728BFA0E80C5048BF72
:100230000CC05DF804EB890028BF40F8042B08BF10
:10024000704748BF20F8022B11F0804F18BF00F80C
:10025000012B7047704770477047754600F02CF8C7
:10026000AE4605006946534620F00700854618B0A3
:1002700020B5FFF797FFBDE820404FF000064FF094
:1002800000074FF000084FF0000B21F00701AC46CB
:10029000ACE8C009ACE8C009ACE8C009ACE8C009EA
:1002A0008D46704710B50446AFF300802046BDE888
:1002B0001040FFF762BF0000004870474001002077
:1002C00001491820ABBEFEE7260002007047FEE79A
:1002D00070474FF4804000F07DB872B6FEE710B56D
:1002E00090F821100022022905D00421816380F8B2
:1002F0002020012010BD01680B6823F00E030B6065
:1003000001680B6823F001030B6090F84030C46B68
:10031000012101FA03F3636080F8211080F82020A6
:10032000104610BD10B590F821100024022903D00A
:100330000421816301243DE001680A6822F00E0275
:100340000A6001680A6822F001020A601A4A01681C
:10035000914201D1012121E0174A1432914201D189
:1003600010211BE0144A2832914201D1891515E071
:10037000114A3C32914201D189140FE00E4A5032A9
:10038000914202D14FF4803108E00B4A643291422D
:1003900002D14FF4801101E04FF08071064A083A13
:1003A0005160012180F82110002180F82010416B5C
:1003B00001B18847204610BD0800024010B5B0F5D5
:1003C000804F04D100F00CF901490A30086010BDDB
:1003D00004000020044910B50A68024202D00860F7
:1003E000FFF7ECFF10BD0000140401402DE9F84FA9
:1003F000DFF8B8910024A9F1040B23460F2709F177
:10040000040AABF1040EC9E00125A5402A40AA4226
:100410007DD1674ED1F804C0ACEB0608B44532D0AC
:1004200014DCBCF1030F3AD009DCBCF1000F2AD078
:10043000BCF1010F1CD0BCF1020F31D11DE0BCF1A9
:10044000110F17D0BCF1120F2AD119E0B8F5881F8F
:1004500019D006DCB8F5803F15D0B8F5801F1FD144
:1004600011E0B8F5001F0ED0B8F5041F18D10AE04E
:10047000CB6815E0CB681B1D12E0CB6808330FE09A
:10048000CB680C330CE08B682BB1012B4FF00803C9
:1004900003D0456104E0042302E0056100E000238D
:1004A000FF2A01D8064601E000F104064FEA840560
:1004B00001D9A5F12005D6F8008007FA05FC28EA45
:1004C0000C0803FA05F548EA0508C6F800804D68EF
:1004D000ED0062D5374DAE6946F00106AE61AD69FB
:1004E00024F0030605F001050095334D06EB050CDD
:1004F000DCF80850A607360F07FA06F825EA0805C3
:10050000DFF8B880404503D14FF0000817E044E021
:10051000DFF8AC80404502D14FF001080FE0DFF872
:10052000A480404502D14FF0020808E0DFF898802F
:10053000404502D14FF0030801E04FF0040808FAEB
:1005400006F848EA0508CCF808804D68D9F800603C
:10055000ED024D4601D5164300E096432E604D68EE
:10056000DAF80060AD02554601D5164300E0964327
:100570002E604D68DBF80060AD035D4601D5164383
:1005800000E096432E604D68DEF80060ED0375468E
:1005900001D5164300E096432E60641C0D682A4680
:1005A000E5407FF431AFBDE8F88F0000080401405A
:1005B000000011100010024000000140000801403E
:1005C000000C014000100140001401408068084008
:1005D00000D0012070470AB1016170470904FBE7B0
:1005E00001488068704700001800002070B50400C2
:1005F00025D094F83D00002520B984F83C502046D1
:1006000000F0E6F9242084F83D002068016821F01C
:10061000010101602068016841F400410160206827
:10062000016821F40041016000F02EFB4D4A616831
:10063000914201D84C4900E04C49884201D2012046
:1006400070BD4B492368B0FBF1F15E6826F03F06B0
:100650000E435E606368934206D94FF49673594324
:100660004FF47A73B1FBF3F12368491C1E6A26F03C
:100670003F06314319626168914210D84900401E1B
:10068000B0FBF1F2521CC2F30B02042A01D2042087
:1006900022E0B0FBF1F0401CC0F30B001CE0A268AC
:1006A000F2B301EBC10303EB0116431EB3FBF6F3F8
:1006B0005B1C43F480431B0549D092B301EBC1029C
:1006C00002EB0111401EB0FBF1F0401CC0F30B0027
:1006D00040F4804040F400402168CA694CF6FF7342
:1006E0009A431043C861D4E90710014320680268A7
:1006F00022F0C00211430160D4E9030101432068E4
:10070000826848F2FF339A4311438160D4E90501BE
:1007100008432168CA6822F0FF021043C86001E064
:100720000EE016E02068016841F0010101602564D7
:10073000202084F83D00256384F83E50002070BDE1
:1007400001EB4106431EB3FBF6F35B1CB3E701204C
:10075000C2E701EB4101401EB0FBF1F0401CC0F3C9
:100760000B00B7E7A086010080841E0000093D0051
:1007700040420F002DE9F84F1F4690468A46044636
:10078000DDF82890FFF72CFF054694F83D0020285F
:100790007FD11923012240492046009500F06EFFC9
:1007A000002876D194F83C00012872D0012084F80A
:1007B0003C0020680168C90703D1016841F00101CC
:1007C00001602068016821F400610160212084F843
:1007D0003D00102084F83E0000262664C4F82480E2
:1007E0006785608D20852D48E0622B464A4651463C
:1007F000204600F075FE90B920684169806900903C
:1008000036E02A464946204600F0DEFF50B1206C13
:10081000042804D12068016841F4007101600120BE
:10082000BDE8F88F606A216800780861606A401C42
:100830006062618D491E6185218D491E89B22185C5
:1008400022685369DB435B070BD451B10078106118
:10085000606A401C6062608D401E6085208D401E75
:1008600020852A464946204600F0DCFE0028CED1ED
:10087000208D0028C5D154F83D0B016841F400716A
:100880000160202004F81E09E67766770020C7E79C
:10089000FFE70220C4E70000020010000000FFFF95
:1008A0002DE9FF4F83B09A46DDE911979346044640
:1008B000DDF84080FFF794FE054694F83D002028BF
:1008C0007FD11923012240492046009500F0D6FE31
:1008D000002876D194F83C00012872D0012084F8D9
:1008E0003C0020680168C90703D1016841F001019B
:1008F00001602068016821F400610160212084F812
:100900003D00402084F83E0000262664C4F8248080
:10091000A4F82A90608D20852C48E062CDE900750E
:1009200053465A462046049900F028FE70B930E03C
:100930002A463946204600F047FF58B1206C04286B
:1009400004D12068016841F400710160012007B002
:10095000BDE8F08F606A216800780861606A401C19
:100960006062218D491E89B22185628D521E628589
:1009700022685369DB435B070BD469B100781061CF
:10098000606A401C6062208D401E2085608D401E84
:100990006085208D0028CBD12A463946204600F0BC
:1009A00041FE0028CAD154F83D0B016841F40071A2
:1009B0000160202004F81E09E67766770020C6E76C
:1009C000FFE70220C3E70000020010000000FFFF65
:1009D00010B586B000210091019102910391006849
:1009E0000F4988421AD10F4CA06940F00800A0615D
:1009F000A069694600F008000490C0200090122011
:100A00000190032003900848FFF7F0FCE06940F4F0
:100A10000010E061E06900F40010049006B010BD21
:100A20000054004000100240000C01400248816860
:100A3000027811448160704718000020074810B503
:100A4000016841F010010160032000F075F80F20EB
:100A500000F006F800F024F8002010BD002002404D
:100A600070B50D4D04464FF47A712878B1FBF0F063
:100A70000A490968B1FBF0F000F0DCFA48B9102C23
:100A800007D200222146501E00F036F800206C608C
:100A900070BD012070BD000018000020240000205F
:100AA0000C4808B5816941F001018161816901F05B
:100AB00001010091C16941F08051C161C06900F03C
:100AC000805000900448416821F0E06141F00071DD
:100AD000416008BD0010024000000140002809DB11
:100AE00000F01F02012191404009800000F1E02048
:100AF000C0F8001170470000F0B40E4B1B680C46A4
:100B0000C3F30223C3F10705042D00D90425191DE1
:100B1000072901D2002300E0DB1E012606FA05F1B9
:100B2000491E214099409E40761E16403143F0BC3C
:100B300001F084B90CED00E0064900F007020868F6
:100B40004FF6FF03184040EA0220034A10430860B2
:100B5000704700000CED00E00000FA052DE9F047B9
:100B60000F46050061D0434E306800F00700B842E0
:100B700009D2306820F0070038433060306800F058
:100B80000700B84251D128683B4C810712D5400775
:100B900003D5606840F4E06060602878000703D502
:100BA000606840F4605060606068A96820F0F00000
:100BB000084360602878C00728D06868012810D0F2
:100BC0002168022810D0890700292EDA616821F0F7
:100BD000030101436160FFF703FD804641F288395C
:100BE0000DE021688903EFE78901EDE7FFF7F8FCE5
:100BF000A0EB0801494502D90320BDE8F0876068F1
:100C0000696800F00C00B0EB810FEFD1306800F0A4
:100C10000700B8420BD9306820F007003843306035
:100C2000306800F00700B84201D00120E5E72878DD
:100C3000400705D56068E96820F4E060084360601B
:100C40002878000706D56068296920F4605040EADA
:100C5000C100606000F038F86168084AC1F3031110
:100C6000515CC8400649086006480068FFF7F8FE76
:100C70000020C2E70020024000100240F21F0008DE
:100C8000240000201C000020044805490068496831
:100C9000044AC1F30221515CC8407047240000207F
:100CA0000010024002200008044805490068496815
:100CB000044AC1F3C221515CC8407047240000209F
:100CC00000100240022000080E4A51680E4801F050
:100CD0000C03042B11D0082B0FD10C48C1F3834314
:100CE000C903C05C0AD55168084AC1F34041921E4D
:100CF000515C054A5043B0FBF1F07047044948434A
:100D0000704700000010024000127A00E21F000845
:100D100000093D002DE9F84F040070D02078C04D47
:100D2000C00749D06868C0F38100012807D068680F
:100D3000C0F38100022809D16868C00306D528687D
:100D4000800339D560680028E7D035E06068B0F5E9
:100D5000803F0BD010B1B0F5A02F11D0286820F43F
:100D600080302860286820F4802002E0286840F461
:100D700080302860606890B1FFF732FC06460AE0D8
:100D8000286840F480202860F0E700BFFFF728FCC7
:100D9000801B642873D828688003F7D50CE0FFF720
:100DA0001FFC064605E000BFFFF71AFC801B642805
:100DB000F0D828688003F7D420789A4E80074FF047
:100DC00001094FF0000839D5686810F00C0F07D002
:100DD0006868C0F38100022809D16868C00306D49E
:100DE0002868800714D52069012808D110E02069FF
:100DF000B0B1C6F80090FFF7F3FB074605E00AE143
:100E0000FFF7EEFBC01B0228C4D828688007F7D57F
:100E10002868616920F0F80040EAC10028600DE010
:100E2000C6F80080FFF7DCFB074604E0FFF7D8FBBD
:100E3000C01B022823D828688007F7D42078000731
:100E40002CD57948A169D9B1C0F80090FFF7C8FB4B
:100E5000074604E0FFF7C4FBC01B02280FD8686AEE
:100E60008007F7D571484FF4FA510068B0FBF1F0F4
:100E7000009000BF0098411E0091FAD20EE080E081
:100E8000C0F80080FFF7ACFB074604E0FFF7A8FBC3
:100E9000C01B022875D8686A8007F7D420784007FD
:100EA00060D5E8690027C00008D4E86940F08050A8
:100EB000E861E869012700F0805000905C48016813
:100EC000C90513D40168834641F480710160FFF7BE
:100ED00087FB824606E000BFFFF782FBA0EB0A001B
:100EE00064284ED8DBF80000C005F5D5E06801287D
:100EF0000AD008B1052813D0286A20F00100286222
:100F0000286A20F0040002E0286A40F0010028620C
:100F1000E06841F2883B98B1FFF762FB82460BE044
:100F2000286A40F004002862EEE700BFFFF758FB94
:100F3000A0EB0A0159455AD8286A8007F6D50CE07B
:100F4000FFF74EFB824605E0FFF74AFBA0EB0A01E4
:100F500059454CD8286A8007F6D41FB1E86920F0BB
:100F60008050E861E06988B36968C1F381010229B2
:100F700044D00228C6F8608004D0FFF731FB044655
:100F800038E034E0FFF72CFB074604E0FFF728FBCE
:100F9000C01B02282BD828688001F7D4206AB0F53E
:100FA000803F05D16868A16820F40030084368607C
:100FB000D4E908010843696821F4741108436860A2
:100FC000C6F86090FFF70CFB044606E025E000BF82
:100FD000FFF706FB001B022809D828688001F7D517
:100FE0001BE000BFFFF7FCFA001B022802D9032018
:100FF000BDE8F88F28688001F4D40EE00128F7D00E
:101000006868226A00F48031914204D1616A00F478
:101010007010884201D00120EAE70020E8E70000D4
:10102000001002400000424280044242240000209E
:101030000070004010B5401EB0F1807F01D3012048
:1010400010BD4FF0E02460610F21601700F0F6FE44
:101050000020A06107202061002010BD704770476C
:10106000F8B5016804460868CA684B6910F00F0FAC
:101070004FF0000559D003F0010602F49077374392
:1010800065D0C10705D0D10503D5616C41F00101E0
:101090006164410705D5D90703D0616C41F00201B5
:1010A0006164810705D5D90703D0616C41F0040163
:1010B0006164010707D502F02001314303D0616C60
:1010C00041F008016164616C00293AD0800604D5C2
:1010D000900602D5204600F080FD20684069616CD2
:1010E000C0F38010090700D460B3204600F04EFD25
:1010F00020684069400621D52068143050E8001F60
:1011000021F0400140E80012002AF5D1E06BA8B1BF
:101110006D494163E06BFFF705F9002811D0E06BE2
:10112000416B01B0BDE8F040084783060FD5930638
:101130000DD52046BDE8F84000F04FBD2046FFF732
:101140008EFFF8BD2046FFF78AFF6564F8BD266B69
:101150002023012E7CD1C6067AD5D60678D508681C
:101160004868009048694FF00206400640D5E16BA0
:10117000086840680004000CE8D0A28D8242E5D9DE
:10118000E085886920282DD020680C3050E8001FA9
:1011900021F4807140E80012002AF5D12068143053
:1011A00050E8001F21F0010140E80012002AF5D1AB
:1011B0002068143050E8001F21F0400140E8001280
:1011C000002AF5D184F84230256320680C3050E8BD
:1011D000001F21F0100140E80012002AF5D1E06B59
:1011E000FFF77DF86663A08DE18D401A81B22AE099
:1011F000A08DE18D401A81B2E08D0028A6D0002993
:10120000A4D022680C3252E8000F20F4907042E81B
:101210000007002FF5D12068143050E8002F22F08D
:10122000010240E80027002FF5D184F84230256301
:1012300020680C3050E8002F22F0100240E8002314
:10124000002BF5D166632046FFF708FFF8BDFFE7E6
:1012500005062BD5150629D594F841002128F5D18E
:10126000A068B0F5805F01D12069B0B1206A411C4F
:101270002162216800784860E08C401E0004000C68
:10128000E084E3D12068C16821F08001C16020685A
:10129000C16841F04001C160D8E7206A0088C0F30E
:1012A00008004860206A801C2062E5E74006CDD532
:1012B0005006CBD5CA68204622F04002CA6084F8A6
:1012C000413000F0EFF8C1E77D1B000870B5040065
:1012D00004D094F84100002510B106E0012070BD53
:1012E00084F84050204600F023F8242084F8410080
:1012F0002068C16821F40051C160204600F0CEFC96
:101300002068016921F4904101612068416921F060
:101310002A0141612068C16841F40051C1606564DF
:10132000202084F8410084F842006563002070BDED
:1013300030B585B0002400940194029403940068B1
:10134000184988422CD11848816941F48041816153
:10135000816901F480410491816941F00401816156
:101360008069124D00F0040004904FF4007000906A
:10137000022001900320039069462846FFF736F8C3
:101380002815CDE90004694628460294FFF72EF897
:10139000002211462520FFF7AFFB2520FFF79EFB1B
:1013A00005B030BD00380140001002400008014087
:1013B00090F84230202B01D00220704721B11AB1A1
:1013C0000023036300F0C6BC0120704701490120DF
:1013D00048607047100000202DE9F843044690F85B
:1013E00041001F4616460D46202802D00220BDE8C7
:1013F000F8837DB176B100206064212084F841003B
:10140000FFF7EEF8A6848046E684A068B0F5805F1A
:1014100002D003E00120EAE7206910B12E46002542
:101420000EE000260CE08021204600F0AEFCA0B9C2
:10143000AEB116F8010B21684860E08C401EE084D4
:10144000E08C43464FF0000200970028EBD14FF0AC
:101450004001204600F099FC30B10320C7E735F881
:10146000020BC0F30800E6E7202084F841000020CA
:10147000BDE790F84130202B01D00220704779B1B0
:1014800072B101628284C28400214164212180F80A
:1014900041100068C16841F08001C16000207047C0
:1014A00001207047014901200860704710000020AA
:1014B000FEE701684A69D24352050FD46FF4806297
:1014C0004A61002140F8301F202242738173026973
:1014D00042F004020261017301207047002070474E
:1014E000F8B50446C06A1E460D461746082807D0C0
:1014F000012805D010F5803F02D0206B122804D1BE
:101500002068016841F480710160134600224FF0A9
:1015100001112046009600F0B1F840B12068006843
:10152000C00502D54FF4007020640320F8BD206987
:10153000B0F5804F0ED00620216800EAD51040F0AB
:10154000F000086133463A460B49204600F0DEF8C9
:1015500078B902E005F0FE0000E0E8B22168086119
:10156000054933463A46891F204600F0CFF8002847
:10157000DCD00120F8BD0000080001002DE9F8438F
:10158000044600680D46DDE908970168984616464E
:1015900041F4807101604B4600224FF0011120465A
:1015A000009700F06BF848B120680068C00502D5CC
:1015B0004FF4007020640320BDE8F883216805F033
:1015C000FE0008613B464A461549204600F09EF859
:1015D00088B920684169806900903A4649462046AA
:1015E00000F0F2F848B1206C042804D120680168AA
:1015F00041F4007101600120DEE7F5B2B8F1010F9E
:1016000009D02168300A08613A464946204600F070
:10161000DBF80028E7D1206805610020CCE7000056
:101620000200010070B516460D4604461EE0204635
:10163000FFF73FFF08B1012070BD681C16D0FEF710
:10164000CFFF801BA84200D885B920684069C043FD
:1016500040070BD5002044F8300F20216173A073A0
:10166000216941F0200121612073E4E7206840698D
:10167000C0434007DBD4002070BD00002DE9F047D7
:10168000984617460D460446C1F30746DDF82090FC
:101690002AE000BFB8F1FF3F26D0FEF7A1FFA0EB84
:1016A0000901414502D8B8F1000F1DD12068012E73
:1016B00016D0806925EA00000004000C12D000203A
:1016C000B84211D1002044F8300F20216173A0737B
:1016D000216941F02001216120730120BDE8F087DC
:1016E0004069E7E70120EBE72068012E0AD0806916
:1016F00025EA00000004000C06D00020B842C9D042
:101700000020EBE74069F3E70120F7E72DE9F04718
:10171000984616460D4604464FF000094FF0200A41
:10172000C1F3074723E020684069C043400515D452
:101730002068016841F40071016021686FF48060E5
:101740004861C4F8309084F83DA084F83E90216C44
:1017500041F00401216484F83C9021E0701C06D023
:10176000FEF73EFFA0EB0800B04203D816B1012FF0
:101770001FD021E02068012F15D0806925EA0000E4
:101780000004000C18D000BF44F8309F84F80DA06E
:1017900084F80E90216941F02001216184F80C90B9
:1017A0000120BDE8F087406925EA00000004000C34
:1017B000EAD12068406901E02068806925EA0000DC
:1017C0000004000CAFD1ECE770B516460D46044698
:1017D0001EE02046FFF76DFE08B1012070BD681CB9
:1017E00016D0FEF7FDFE801BA84200D885B9206800
:1017F0004069C04300060BD5002044F8300F20217B
:101800006173A073216941F0200121612073E4E735
:1018100020684069C0430006DBD4002070BD000092
:1018200070B586B000241D4800940194029403947E
:10183000816941F010018161816901F01001049119
:10184000816941F008018161816901F00801049119
:10185000816941F0040181618069114E00F004004A
:101860004FF400550490002229463046FEF7B3FE9F
:1018700001200095CDE9010402200390694630461D
:10188000FEF7B4FD680000900648CDE90104694602
:101890000548FEF7ABFD06B070BD00000010024029
:1018A0000010014000003110000C01400D4810B53F
:1018B0000B4901600C49416000214FF48042816076
:1018C000C0E9031241618161C1610162FEF78EFED0
:1018D000002803D0BDE81040FEF7FFBC10BD00009B
:1018E00000540040A4000020A08601000C4810B560
:1018F0000A4901604FF4E1314160002181600C220E
:10190000C160C0E904128161C161FFF7DFFC0028FA
:1019100003D0BDE81040FEF7E0BC10BD0038014028
:10192000F8000020FEE7FEE710B5A0B000248021FB
:101930006846FEF768FC0021204600F0A9F88021E7
:10194000684600F0D9F8641CE4B2082CF3D320B048
:1019500010BD000010B50224202000F0B9F8204688
:1019600000F0B6F81F4804703F24A82000F0B0F83B
:10197000204600F0ADF80024D32000F0A9F820465E
:1019800000F0A6F8402000F0A3F8A12000F0A0F895
:10199000C82000F09DF80021084600F063F87F247D
:1019A000812000F095F8204600F092F8A42000F085
:1019B0008FF8A62000F08CF8D52000F089F8802060
:1019C00000F086F88D2000F083F8142000F080F8F5
:1019D0000021012000F046F8BDE81040AF2000F0E3
:1019E00077B80000280000202DE9F04117460E4688
:1019F000044600250BE03146204600F00FF8641C39
:101A0000E4B20F2C02D90024B61CF6B26D1C7A5D2C
:101A1000002AF0D12846BDE8F081000070B51646D6
:101A2000C206150E0C46072918D80F2816D82946C5
:101A3000204600F02DF80A48082100EB0610064663
:101A400000F05AF8641CE0B2294600F021F806F1D3
:101A50000800BDE87040082100F04EB870BD0000DD
:101A60000A20000870B50C46050001D0012D0ED1EA
:101A70000CB1012C0BD1DA2000F02AF8280100EB80
:101A80004410BDE87040801CC0B200F021B870BDA9
:101A900070B50E4D0C462978022905D1072803D8C8
:101AA000B030C0B200F014F8287802280CD17F2C96
:101AB0000AD804F00F0000F00BF8102000EB14100F
:101AC000BDE8704000F004B870BD000028000020A0
:101AD0001CB500218DF804108DF805004FF4FA7044
:101AE00000900448022301AA78214068FEF742FED4
:101AF0001CBD0000280000200EB54FF4FA728DE8DE
:101B0000070004480123402278214068FEF7C8FE00
:101B10000EBD0000280000207047704710B5FEF78A
:101B200085FFBDE8104000F099B910B590B02821AC
:101B30006846FEF768FB14210AA8FEF764FB022042
:101B4000009001200490102000240590079468461E
:101B5000FFF7E0F808B172B6FEE70F20CDE90A04FE
:101B60000C940D9400210AA80E94FEF7F7FF0028AC
:101B700001D072B6FEE710B010BD704710B5406AD4
:101B80000021C185C184FFF76AFA10BD01680C31DC
:101B900051E8002F22F4907241E80023002BF5D188
:101BA0000168143151E8002F22F0010241E80023BE
:101BB000002BF5D1016B012909D101680C3151E8E5
:101BC000002F22F0100241E80023002BF5D1202144
:101BD00080F8421000210163704708B590F8421068
:101BE000222901D0022008BD82684FF480539A4216
:101BF00001D1016921B1816A9A421BD04AB10AE040
:101C00000268816A5268C2F308020A80816A891CEC
:101C100008E0026972B10268526802F07F020A703D
:101C2000816A491C8162C18D491E0904090CC18564
:101C300003D01BE002685268F1E70168CA6822F02D
:101C40002002CA600168CA6822F48072CA60016812
:101C50004A6922F001024A61202180F842100021E5
:101C60004163026B012A03D0FFF7B0FB002008BDDF
:101C7000016301680C3151E8002F22F0100241E8A5
:101C80000023002BF5D101680A68D20602D50A6844
:101C900049680091818DFFF7E1F9E7E770B50446E7
:101CA00000680169E26821F4405111430161216932
:101CB000A0680843616908432168CA6841F20C635F
:101CC0009A430243CA6020684169A26921F44071C5
:101CD000114341611E492068884202D1FEF7E4FFAA
:101CE00001E0FEF7D1FF00EBC00101EB00126068DC
:101CF00064218000B2FBF0F3B3FBF1F36FF0180640
:101D00007343B2FBF0F5B2FBF0F605EB830532232B
:101D100003EB0515B5FBF1F5B6FBF1F605F0F005A3
:101D200005EB0615B2FBF0F6B2FBF0F0B0FBF1F0FC
:101D30006FF01802504306EB800003EB0010B0FB7D
:101D4000F1F0216800F00F002844886070BD0000A9
:101D50000038014081628285C285002141642221D0
:101D600080F84210016921B10168CA6842F48072AA
:101D7000CA6001684A6942F001024A610068C168AC
:101D800041F02001C160002070472DE9F0419846E4
:101D900017460E460446069D27E0681C25D02DB147
:101DA000FEF71EFCA0EB0800A8421ED920680C30EC
:101DB00050E8001F21F4D07140E80012002AF5D14C
:101DC0002068143050E8001F21F0010140E80012A3
:101DD000002AF5D1202084F8410084F84200002038
:101DE00084F840000320BDE8F0812068006836EAEE
:101DF000000004D00020B842CFD00020F3E701203B
:101E0000F9E700000148FFF72BB90000F8000020B7
:101E1000FEE70000034841680029FCD00021416032
:101E20007047000010000020034801680029FCD022
:101E30000021016070470000100000200907090E12
:101E4000002804DB00F1E02080F80014704700F067
:101E50000F0000F1E02080F8141D704710B5FEF768
:101E6000BFFB05490A68904204D3D1E90101BDE8EE
:101E70001040084710BD000004000020002343600C
:101E80000360C0E90212704710B5426884681346C7
:101E9000521C944200D100220468944204D0C468C9
:101EA000E1544260002010BD4FF0FF3010BD000033
:101EB0000B4810B50168491C016009494FF0FF301B
:101EC000091D08604FF480410648FEF77FFB28B1EA
:101ED0008121BDE810400448FFF7D6BF0121F8E793
:101EE00000000020000C01409400002008B529A447
:101EF0002DA5FEF7A3FDFFF718FE314A642102F17C
:101F00006400FFF7BBFFFFF78BFCFFF7CFFCFFF789
:101F1000EDFC002211462820FEF7EEFD2820FEF7FA
:101F2000DDFDFFF717FDFFF7FFFC002125A20846A6
:101F3000FFF75AFD26A202210020FFF755FD20469B
:101F4000FEF742F94FF47A7682B2334621462348AF
:101F5000FFF742FA2846FEF737F982B229461F48B2
:101F6000FFF787FAFFF760FF012269461B48FFF77A
:101F70001FFAFFF74FFF9DF800003346401C8DF815
:101F80000000012269461548FFF726FA3346012270
:101F90000AA1DCE77777772E6A696E697461696DEB
:101FA00065690D0A00000000506C6561736520656D
:101FB0006E746572206120636861723A0D0A0000D8
:101FC00030000020434E5420202020203A00000002
:101FD0004B65792056616C203A000000F800002023
:101FE000010202030405060708090A0B0C0D0E0F77
:101FF00010100000000000000000010203040607AA
:1020000008090000000001020304000000000000B5
:102010000000000000000000000000FE02020202BA
:102020000202003F202020202020000000000000AD
:102030000000000000000000000000FE020202029A
:102040000202003F20202020202000FE0202020287
:102050000202003F20202020202000FE0202020277
:102060000202003F20202020202000FE0202020267
:102070000202003F20202020202000FE0202020257
:102080000202003F20202020202000FE0202020247
:102090000202003F2020202020200000000000003D
:1020A0000000000000000000000000000000000030
:1020B0000000000000000000000000000000000020
:1020C0000000000000000000000000FE020202020A
:1020D0000202003F20202020202000FE02020202F7
:1020E0000202003F20202020202000FE02020202E7
:1020F0000202003F20202020202000FE02020202D7
:102100000202003F20202020202000FE02020202C6
:102110000202003F20202020202000FE02020202B6
:102120000202003F20202020202000FE02020202A6
:102130000202003F20202020202000FE0202020296
:102140000202003F20202020202000FE0202020286
:102150000202003F20202020202000FE0202020276
:102160000202003F20202020202000FE0202020266
:102170000202003F20202020202000FE0202020256
:102180000202003F20202020202000FE0202020246
:102190000202003F20202020202000FE0202020236
:1021A0000202003F20202020202000FE0202020226
:1021B0000202003F20202020202000FE0202020216
:1021C0000202003F2020202020200000000000000C
:1021D00000000000000000000000000000000000FF
:1021E00000000000000000000000000000000000EF
:1021F00000000000000000000000000000000000DF
:1022000000000000000000000000000000000000CE
:1022100000000000000000000000000000F80000C6
:102220000000000000330000000000100C02100C41
:10223000020000000000000000000040C07840C024
:10224000780000043F04043F040000708888FC0804
:10225000300000182020FF211E00F008F0806018D8
:10226000000000310C031E211E0000F008887000E1
:1022700000001E21232C1927211000120E0000003F
:1022800000000000000000000000000000E0180452
:102290000200000000071820400000020418E000BF
:1022A00000000040201807000000404080F08040FF
:1022B00040000202010F0102020000000000E000E5
:1022C0000000000101010F010101000000000000F9
:1022D00000000090700000000000000000000000FE
:1022E00000000001010101010100000000000000E8
:1022F0000000003030000000000000000000C03886
:102300000400006018070000000000E0100808103A
:10231000E000000F102020100F0000001010F80047
:102320000000000020203F2020000070080808085E
:10233000F0000030282422213000003008080888EE
:1023400070000018202121221C000000804030F87D
:10235000000000060524243F242400F8888888080B
:1023600008000019202020110E0000E0108888903D
:102370000000000F112020201F00001808088868A6
:1023800018000000003E0100000000708808088866
:102390007000001C222121221C0000F008080810F7
:1023A000E0000001122222110F00000000C0C00056
:1023B000000000000030300000000000008000003D
:1023C0000000000000E0000000000000804020103D
:1023D0000800000102040810200000404040404076
:1023E00040000002020202020200000810204080A9
:1023F000000000201008040201000070480808884E
:1024000070000000003037000000C030C828E8101D
:10241000E000071827282F2817000000C038E00028
:102420000000203C23020227382008F888888870A2
:102430000000203F202020110E00C03008080808AE
:102440003800071820202010080008F80808081095
:10245000E000203F202020100F0008F88888E808BE
:102460001000203F20202320180008F88888E80862
:102470001000203F200003000000C030080808388A
:10248000000007182020221E020008F8080000089B
:10249000F808203F210101213F20000808F8080822
:1024A00000000020203F2020000000000808F8085D
:1024B0000800C08080807F00000008F888C02818CD
:1024C0000800203F20012638200008F808000000FE
:1024D0000000203F20202020300008F8F800F8F805
:1024E0000800203F013E013F200008F830C00008EE
:1024F000F808203F200007183F00E01008080810E7
:10250000E0000F10202020100F0008F8080808082D
:10251000F000203F210101010000E0100808081030
:10252000E0000F10282830504F0008F8888888886D
:102530007000203F2000030C30200070880808083D
:1025400038000038202121221C00180808F808084B
:1025500018000000203F2000000008F808000008D4
:10256000F808001F202020201F000878880000C8DD
:102570003808000007380E01000008F800F800F8DD
:10258000080000033E013E030000081868808068D0
:10259000180820302C03032C30200838C800C83815
:1025A00008000000203F2000000010080808C8387C
:1025B00008002038262120201800000000FE02021A
:1025C00002000000007F40404000000438C00000CE
:1025D0000000000000010638C00000020202FE00F8
:1025E0000000004040407F000000000004020204A0
:1025F00000000000000000000000000000000000DB
:1026000000008080808080808080000202040000C2
:10261000000000000000000000000000808080003A
:10262000000000192424123F200010F000808000D8
:102630000000003F112020110E000000008080806B
:102640000000000E112020201100000080808090EA
:10265000F000001F202020103F200000808080809C
:102660000000001F242424241700008080E09090A4
:1026700020000020203F202000000000808080807B
:102680008000006B94949493600010F00080808030
:102690000000203F210000203F200080989800008B
:1026A00000000020203F20200000000000809898BB
:1026B000000000C08080807F000010F0000080805B
:1026C0008000203F240629302000001010F8000070
:1026D00000000020203F202000008080808080803B
:1026E0008000203F20003F20003F808000808080CD
:1026F0000000203F210000203F20000080808080DB
:102700000000001F202020201F008080008080000B
:10271000000080FF912020110E000000008080004A
:102720008000000E11202091FF808080800080803A
:10273000800020203F212000010000008080808058
:1027400080000033242424241900008080E080804D
:1027500000000000001F202010008080000000808A
:102760008000001F202020103F208080800080807B
:10277000800000030C300C0300008080008080008B
:102780008080010E300C07380601008080800080B8
:1027900080000020310E2E312000808080000080DB
:1027A000808000818678180601000080808080800B
:1027B00080000021302C222130000000000000FCAD
:1027C000020200000000013E404000000000FF0047
:1027D000000000000000FF0000000202FC000000FA
:1027E000000040403E01000000000002010202041F
:1027F00002000000000000000000000000000000D7
:102800000000000000000000000000002C2800086C
:102810000000002030000000280100085C280008AB
:102820003000002070070000440100080000000094
:10283000FFFFFFFF00000000B11E000800000000C5
:102840000000000001000000100000000000000077
:0C2850000024F40002000000A40000209E
:04000005080000ED02
:00000001FF
